{
  "contractName": "Attendance",
  "abi": [
    {
      "inputs": [
        {
          "internalType": "address",
          "name": "adminAddress",
          "type": "address"
        }
      ],
      "stateMutability": "nonpayable",
      "type": "constructor"
    },
    {
      "anonymous": false,
      "inputs": [
        {
          "indexed": false,
          "internalType": "address",
          "name": "professorAddress",
          "type": "address"
        },
        {
          "indexed": false,
          "internalType": "string",
          "name": "attendants",
          "type": "string"
        },
        {
          "indexed": false,
          "internalType": "uint256",
          "name": "attendanceId",
          "type": "uint256"
        },
        {
          "indexed": false,
          "internalType": "uint256",
          "name": "date",
          "type": "uint256"
        }
      ],
      "name": "AttendanceCompleted",
      "type": "event"
    },
    {
      "inputs": [],
      "name": "admin",
      "outputs": [
        {
          "internalType": "address",
          "name": "",
          "type": "address"
        }
      ],
      "stateMutability": "view",
      "type": "function",
      "constant": true
    },
    {
      "inputs": [],
      "name": "attendants",
      "outputs": [
        {
          "internalType": "string",
          "name": "",
          "type": "string"
        }
      ],
      "stateMutability": "view",
      "type": "function",
      "constant": true
    },
    {
      "inputs": [
        {
          "internalType": "string",
          "name": "attendants",
          "type": "string"
        },
        {
          "internalType": "uint256",
          "name": "attendanceId",
          "type": "uint256"
        }
      ],
      "name": "completeAttendance",
      "outputs": [],
      "stateMutability": "nonpayable",
      "type": "function"
    }
  ],
  "bytecode": "0x608060405234801561001057600080fd5b5060405161068c38038061068c833981810160405281019061003291906100db565b806000806101000a81548173ffffffffffffffffffffffffffffffffffffffff021916908373ffffffffffffffffffffffffffffffffffffffff16021790555050610108565b600080fd5b600073ffffffffffffffffffffffffffffffffffffffff82169050919050565b60006100a88261007d565b9050919050565b6100b88161009d565b81146100c357600080fd5b50565b6000815190506100d5816100af565b92915050565b6000602082840312156100f1576100f0610078565b5b60006100ff848285016100c6565b91505092915050565b610575806101176000396000f3fe608060405234801561001057600080fd5b50600436106100415760003560e01c8063c94e030d14610046578063f4fd147014610064578063f851a44014610080575b600080fd5b61004e61009e565b60405161005b919061022a565b60405180910390f35b61007e600480360381019061007991906103cb565b61012c565b005b61008861016d565b6040516100959190610468565b60405180910390f35b600180546100ab906104b2565b80601f01602080910402602001604051908101604052809291908181526020018280546100d7906104b2565b80156101245780601f106100f957610100808354040283529160200191610124565b820191906000526020600020905b81548152906001019060200180831161010757829003601f168201915b505050505081565b7f0675da329cf6bd6e288880eeda1ae7b282c931c22aee38383ba81903def3b6663383834260405161016194939291906104f3565b60405180910390a15050565b60008054906101000a900473ffffffffffffffffffffffffffffffffffffffff1681565b600081519050919050565b600082825260208201905092915050565b60005b838110156101cb5780820151818401526020810190506101b0565b838111156101da576000848401525b50505050565b6000601f19601f8301169050919050565b60006101fc82610191565b610206818561019c565b93506102168185602086016101ad565b61021f816101e0565b840191505092915050565b6000602082019050818103600083015261024481846101f1565b905092915050565b6000604051905090565b600080fd5b600080fd5b600080fd5b600080fd5b7f4e487b7100000000000000000000000000000000000000000000000000000000600052604160045260246000fd5b6102a2826101e0565b810181811067ffffffffffffffff821117156102c1576102c061026a565b5b80604052505050565b60006102d461024c565b90506102e08282610299565b919050565b600067ffffffffffffffff821115610300576102ff61026a565b5b610309826101e0565b9050602081019050919050565b82818337600083830152505050565b6000610338610333846102e5565b6102ca565b90508281526020810184848401111561035457610353610265565b5b61035f848285610316565b509392505050565b600082601f83011261037c5761037b610260565b5b813561038c848260208601610325565b91505092915050565b6000819050919050565b6103a881610395565b81146103b357600080fd5b50565b6000813590506103c58161039f565b92915050565b600080604083850312156103e2576103e1610256565b5b600083013567ffffffffffffffff811115610400576103ff61025b565b5b61040c85828601610367565b925050602061041d858286016103b6565b9150509250929050565b600073ffffffffffffffffffffffffffffffffffffffff82169050919050565b600061045282610427565b9050919050565b61046281610447565b82525050565b600060208201905061047d6000830184610459565b92915050565b7f4e487b7100000000000000000000000000000000000000000000000000000000600052602260045260246000fd5b600060028204905060018216806104ca57607f821691505b602082108114156104de576104dd610483565b5b50919050565b6104ed81610395565b82525050565b60006080820190506105086000830187610459565b818103602083015261051a81866101f1565b905061052960408301856104e4565b61053660608301846104e4565b9594505050505056fea2646970667358221220cf62090f73d95cce4bc1465d9ba59e33ed080fa7b093e16d16bbad8120a24d6764736f6c634300080a0033",
  "immutableReferences": {},
  "source": "pragma solidity ^0.8.10;\r\n\r\ncontract Attendance {\r\n    address public admin;\r\n    string public attendants;\r\n\r\n    event AttendanceCompleted(\r\n        address professorAddress,\r\n        string attendants,\r\n        uint256 attendanceId,\r\n        uint256 date\r\n    );\r\n    constructor(address adminAddress) public{\r\n        admin = adminAddress;\r\n    }\r\n    function completeAttendance(string memory attendants, uint256 attendanceId) external {\r\n        emit AttendanceCompleted(msg.sender,attendants,attendanceId,block.timestamp);\r\n    }\r\n}",
  "sourcePath": "C:\\Users\\Moham\\Downloads\\Compressed\\face_recognition_blockchain-master\\face_recognition_blockchain-master\\Blockendance\\NodeBackend\\contracts\\Attendance.sol",
  "compiler": {
    "name": "solc",
    "version": "0.8.10+commit.fc410830.Emscripten.clang"
  },
  "schemaVersion": "3.4.3",
  "updatedAt": "2021-12-11T22:35:47.189Z",
  "networkType": "ethereum",
  "devdoc": {
    "kind": "dev",
    "methods": {},
    "version": 1
  },
  "userdoc": {
    "kind": "user",
    "methods": {},
    "version": 1
  }
}